:020000040000FA
:100000000C9462000C948A000C948A000C948A0070
:100010000C948A000C948A000C948A000C948A0038
:100020000C948A000C948A000C948A000C948A0028
:100030000C948A000C948A000C948A000C948A0018
:100040000C9490060C948A000C945E060C9438066E
:100050000C948A000C948A000C948A000C948A00F8
:100060000C948A000C948A000000000023002600F3
:10007000290000000008000201000003040700003E
:1000800000000000000000000000250028002B00F8
:1000900000000000240027002A00040404040404D3
:1000A0000404020202020202030303030303010227
:1000B00004081020408001020408102001020408F6
:1000C0001020DA0611241FBECFEFD8E0DEBFCDBF6F
:1000D00011E0A0E0B1E0E0E0F0E202C005900D9296
:1000E000A63BB107D9F722E0A6EBB1E001C01D9213
:1000F000AB3FB207E1F710E0C2E6D0E004C02197C1
:10010000FE010E94D60FC136D107C9F70E948307AE
:100110000C94FE0F0C94000090E0FC01E255FF4FA0
:10012000249186569F4FFC018491882399F090E09A
:10013000880F991FFC01E057FF4FA591B491FC0176
:10014000EA57FF4F859194918FB7F894EC91E22B89
:10015000EC938FBF08950F931F93CF93DF93C091BC
:10016000DE02EFEDF2E0CD3211F0EEEDF2E08F01C4
:1001700020E030E0A901D801DD918D0180ED8D0FE7
:100180008A3090F4AAE0B0E00E94DC0F2D2FDD0F42
:10019000330B440B550B260F371F481F591F205395
:1001A000310941095109E7CFA4E6B0E00E94DC0F14
:1001B000AB01BC01DF01819190ED980F9A30D0F333
:1001C0008E3259F511968C91119790ED980F9A30C7
:1001D00020F5082E000C990BC0972AE0289F80017B
:1001E000299F100D1124012E000C220B330B400F00
:1001F000511F621F731F12968C9190ED980F9A30C9
:1002000060F4082E000C990BC097092E000CAA0B65
:10021000BB0B480F591F6A1F7B1FCD3239F47095F5
:100220006095509541955F4F6F4F7F4FCB01BA015D
:10023000DF91CF911F910F9108954F925F926F922E
:100240007F928F929F92AF92BF92CF92DF92EF9266
:10025000FF921F93CF93DF93CEEDD2E0FE01C12C2E
:10026000D12C7601119180ED810F8A30A8F4AAE09B
:10027000B0E0A70196010E94DC0FC12E110FDD082E
:10028000EE08FF08C60ED71EE81EF91E80E3C81A46
:10029000D108E108F108E6CFC701B60124E630E055
:1002A00040E050E00E94B40F9B01AC0160EA76E8A8
:1002B00081E090E00E94A40F4B015C019E018991B6
:1002C00090ED980F9A30D0F38E3221F5E901219606
:1002D00080E1482E87E2582E612C712CA99180ED87
:1002E0008A0F8A30B8F40A2E000CBB0BD097A301FA
:1002F00092010E94E70F860E971EA81EB91EC30129
:10030000B2012AE030E040E050E00E94B40F290141
:100310003A01E4CFC701B60124E630E040E050E006
:100320000E94B40F60E472E48FE090E00E94A40F9A
:100330006B017C01C501B4016D5F7F4F8F4F9F4FF3
:1003400026E030E040E050E00E94B40FC701B60163
:10035000620F731F841F951FDF91CF911F91FF9034
:10036000EF90DF90CF90BF90AF909F908F907F9055
:100370006F905F904F900895AF92BF92CF92DF92AF
:10038000EF92FF920F931F93CF93DF936C017B014A
:100390008B01040F151FEB015E01AE18BF08C017DB
:1003A000D10759F06991D601ED91FC910190F0814E
:1003B000E02DC6010995892B79F7C501DF91CF9111
:1003C0001F910F91FF90EF90DF90CF90BF90AF9073
:1003D0000895FC01538D448D252F30E0842F90E04B
:1003E000821B930B541710F0CF9608950197089530
:1003F000FC01918D828D981761F0A28DAE0FBF2FF9
:10040000B11D5D968C91928D9F5F9F73928F90E04E
:1004100008958FEF9FEF0895FC01918D828D9817BD
:1004200031F0828DE80FF11D858D90E008958FEFFA
:100430009FEF0895FC01918D228D892F90E0805CC3
:100440009F4F821B91098F739927089583ED91E047
:100450000E941A0221E0892B09F420E0822F0895DE
:1004600080E090E0892B29F00E94260281110C94F3
:1004700000000895FC01A48DA80FB92FB11DA35A47
:10048000BF4F2C91848D90E001968F739927848FB4
:10049000A689B7892C93A089B1898C9183708064D7
:1004A0008C93938D848D981306C00288F389E02D78
:1004B00080818F7D80830895EF92FF920F931F9329
:1004C000CF93DF93EC0181E0888F9B8D8C8D981307
:1004D0001AC0E889F989808185FF15C09FB7F89413
:1004E000EE89FF896083E889F9898081837080645F
:1004F00080839FBF81E090E0DF91CF911F910F91AA
:10050000FF90EF900895F62E0B8D10E00F5F1F4FB8
:100510000F731127E02E8C8D8E110CC00FB607FCC7
:10052000FACFE889F989808185FFF5CFCE010E9455
:100530003A02F1CFEB8DEC0FFD2FF11DE35AFF4F87
:10054000F0829FB7F8940B8FEA89FB8980818062E3
:10055000CFCFCF93DF93EC01888D8823B9F0AA89A0
:10056000BB89E889F9898C9185FD03C0808186FD6E
:100570000DC00FB607FCF7CF8C9185FFF2CF8081BD
:1005800085FFEDCFCE010E943A02E9CFDF91CF91F6
:100590000895833081F028F4813099F08230A9F0F9
:1005A00008958730A9F08830C9F08430B1F4809183
:1005B00080008F7D03C0809180008F7780938000C2
:1005C000089584B58F7784BD089584B58F7DFBCF62
:1005D0008091B0008F778093B00008958091B00033
:1005E0008F7DF9CFCF93DF93282F30E0F901EE58BC
:1005F000FF4F8491F901E255FF4FD491F901E6567E
:10060000FF4FC491CC23A1F081110E94C902EC2FAD
:10061000F0E0EE0FFF1FE859FF4FA591B491EC9168
:10062000ED2381E090E009F480E0DF91CF9108951F
:1006300080E090E0FACF1F93CF93DF93282F30E034
:10064000F901EE58FF4F8491F901E255FF4FD49123
:10065000F901E656FF4FC491CC23A9F0162F811162
:100660000E94C902EC2FF0E0EE0FFF1FEA57FF4F88
:10067000A591B4918FB7F894EC91111108C0D09561
:10068000DE23DC938FBFDF91CF911F910895DE2B86
:10069000F8CF8E50806480937C0080917A008064D3
:1006A00080937A0080917A0086FDFCCF809178005B
:1006B0009091790008952FB7F8946091BB017091E3
:1006C000BC018091BD019091BE012FBF0895089596
:1006D00090E080E00895CF93DF93EC0160E08E819D
:1006E0000E941B0361E08E810E941B0360E08E81EB
:1006F0000E941B038BE891E00197F1F7DF91CF9106
:100700000895CF92DF92EF92FF920F931F93CF93B2
:10071000DF936C017C0187E0E80EF11CD0E0C0E0C3
:10072000062F10E0B8010C2E02C0759567950A944B
:10073000E2F76170F70181917F010E941B0321960E
:10074000C430D10579F7C601DF91CF911F910F9188
:10075000FF90EF90DF90CF900C946B03CF92DF92DD
:10076000EF92FF920F931F93CF93DF93EC01F62E3E
:10077000642F8C810E941B038D818F3F19F060E0F4
:100780000E941B030F2D10E08F8584FF25C06E0192
:1007900087E0C80ED11CF12CE12CB8010E2C02C050
:1007A000759567950A94E2F76170F60181916F0182
:1007B0000E941B03FFEFEF1AFF0A88E0E816F1041E
:1007C00061F7CE01DF91CF911F910F91FF90EF90D4
:1007D000DF90CF900C946B03B80184E0759567951A
:1007E0008A95E1F7CE010E9481036F2DCE01DF9142
:1007F000CF911F910F91FF90EF90DF90CF900C94CD
:10080000810340E0682F80E792E00C94AE03CF9321
:10081000DF93613029F090917F02986090937F027E
:10082000609383021092840290E4909385028093F7
:100830008602805C80938702809174020E948C0003
:10084000809175028F3F11F00E948C00809176029A
:100850000E948C00C0E7D2E09E0120573240809178
:100860007F0284FD0AC084E090E0219628173907B2
:100870003CF48E810E948C00EFCF88E090E0F5CFB1
:100880008BE39DE00197F1F760E0809174020E9494
:100890001B0360E0809176020E941B038091750229
:1008A0008F3F19F060E00E941B0380917F0284FD5E
:1008B00039C063E080E792E00E948103CBE4D6E494
:1008C000CE010197F1F763E080E792E00E94810397
:1008D0002197F1F763E080E792E00E94810383E5CE
:1008E00092E00197F1F762E080E792E00E948103D5
:1008F00080917F0280620E94010484E080938002E4
:100900008CE00E94010481E00E9401048BE39FE1DE
:100910000197F1F782E08093810286E0DF91CF9129
:100920000C94010480620E9401048BE496E4019718
:10093000F1F780917F0280620E94010483E592E0DA
:100940000197F1F780917F0280620E940104D0CF6D
:10095000643009F463E090918302691710F06FEF3F
:10096000690FE62FF0E0E059FD4F9489890F806808
:100970000C94010441E00E94AE0381E090E00895F0
:10098000FB0101900020E9F73197AF01461B570B9F
:10099000DC01ED91FC910280F381E02D09948F92AE
:1009A0009F92AF92BF92EF92FF920F931F93CF93BC
:1009B000DF93CDB7DEB7A1970FB6F894DEBF0FBEB9
:1009C000CDBF7C01FA01CB0119A2223008F42AE044
:1009D0008E010F5D1F4F822E912CB12CA12CBF01D7
:1009E000A50194010E94B40FF901CA016A300CF507
:1009F000605DD8016E938D01232B242B252B79F775
:100A000090E080E0109721F0BD01C7010E94C00472
:100A1000A1960FB6F894DEBF0FBECDBFDF91CF9188
:100A20001F910F91FF90EF90BF90AF909F908F908C
:100A30000895695CDECFCF92DF92EF92FF926C0156
:100A4000990FEE08FF08F7FE18C041E06DE280E75D
:100A500092E00E94AE0344275527BA014C195D0964
:100A60006E097F092AE080E792E00E94CF04019698
:100A7000FF90EF90DF90CF9008952AE0B701A60194
:100A800080E792E0FF90EF90DF90CF900C94CF043E
:100A90002F923F924F925F926F927F928F929F928E
:100AA000AF92BF92CF92DF92EF92FF921F93CF93BC
:100AB000DF93EC016A017B01722EAB019601CB0141
:100AC000B6010E949F0F6EE171E0811126C04601C0
:100AD0005701E894B7F82FEF3FEF4FE75FE7C50105
:100AE000B4010E949F0F81110CC02FEF3FEF4FE721
:100AF0005FE7C501B4010E94D50D62E271E01816EE
:100B000064F02FEF3FEF4FE75FE4C701B6010E94AB
:100B10002D0F1816B4F466E271E0CE01DF91CF918B
:100B20001F91FF90EF90DF90CF90BF90AF909F907C
:100B30008F907F906F905F904F903F902F900C948C
:100B4000C0042FEF3FEF4FE75FECC701B6010E94F3
:100B5000D50D87FDE0CF20E030E0A901C701B60147
:100B60000E94D50D312C212C87FF0DC0E881F98121
:100B70000190F081E02D6DE2CE0109951C01F7FA9C
:100B8000F094F7F8F09410E060E070E080E09FE30C
:100B9000711641F020E030E040E251E40E94DA0DAD
:100BA0001F5FF6CFA70196010E94690D2B013C0142
:100BB0000E944C0E4B015C012AE0BC01A401CE0155
:100BC0000E94CF047C01E20CF31C1123E1F1C5016A
:100BD000B4010E947B0E9B01AC01C301B2010E94D3
:100BE000680D4B015C01E881F9810190F081E02DF5
:100BF0006EE2CE010995E80EF91E115020F120E0B9
:100C000030E040E251E4C501B4010E94320F2B01F3
:100C10003C010E944C0E4B01B12CA12C2AE0B501E5
:100C2000A401CE010E94CF04E80EF91EC501B40153
:100C30000E947B0E9B01AC01C301B2010E94680DB2
:100C40004B015C01DACFC701DF91CF911F91FF907B
:100C5000EF90DF90CF90BF90AF909F908F907F905C
:100C60006F905F904F903F902F9008950C94C00428
:100C70001F920F920FB60F9211242F933F934F9311
:100C80005F936F937F938F939F93AF93BF93EF93F4
:100C9000FF9383ED91E00E943A02FF91EF91BF91A3
:100CA000AF919F918F917F916F915F914F913F9104
:100CB0002F910F900FBE0F901F9018951F920F92BB
:100CC0000FB60F9211242F938F939F93EF93FF935F
:100CD000E091E301F091E4018081E091E901F0917C
:100CE000EA0182FD1BC090818091EC018F5F8F73C0
:100CF0002091ED01821741F0E091EC01F0E0ED521E
:100D0000FE4F958F8093EC01FF91EF919F918F9112
:100D10002F910F900FBE0F901F9018958081F4CFE8
:100D20001F920F920FB60F9211242F933F938F9320
:100D30009F93AF93BF938091BB019091BC01A09111
:100D4000BD01B091BE013091BA0123E0230F2D37D0
:100D500058F50196A11DB11D2093BA018093BB01E6
:100D60009093BC01A093BD01B093BE018091B601E8
:100D70009091B701A091B801B091B9010196A11D60
:100D8000B11D8093B6019093B701A093B801B093C1
:100D9000B901BF91AF919F918F913F912F910F908A
:100DA0000FBE0F901F90189526E8230F0296A11DE5
:100DB000B11DD2CFE3EDF1E01382128288EE93E011
:100DC000A0E0B0E084839583A683B78384E091E0BC
:100DD0009183808385EC90E09587848784EC90E014
:100DE0009787868780EC90E0918B808B81EC90E0F8
:100DF000938B828B82EC90E0958B848B86EC90E0D9
:100E0000978B868B118E128E138E148EE8E8F2E08B
:100E10004FEF5FEFBA014083518362837383108683
:100E20001186128613868FEF99ECAAE9BBE3808BBB
:100E3000918BA28BB38B808F918FA28FB38F80A366
:100E400091A3A2A3B3A380A791A7A2A7B3A780ABA6
:100E500091ABA2ABB3AB40AF51AF62AF73AF8FEF0B
:100E600090E09093C9028093C8024093CC025093C3
:100E7000CD026093CE027093CF024093D402509380
:100E8000D5026093D6027093D7021092DC021092C2
:100E9000DD0282E08093ED021092EE021092EF02EA
:100EA0001092F0021092F1021092F2021092F302EC
:100EB0001092F4021092F6021092F5021092F802CB
:100EC0001092F7021092DE02E0E7F2E01382128243
:100ED00086E191E0918380838DE084838FEF858329
:100EE0008CE086838BE087838AE0808789E0818736
:100EF00088E082871386148615861686178661E039
:100F000080E10C940704789484B5826084BD84B534
:100F1000816084BD85B5826085BD85B5816085BDF4
:100F200080916E00816080936E00109281008091AC
:100F30008100826080938100809181008160809334
:100F40008100809180008160809380008091B10059
:100F500084608093B1008091B00081608093B00084
:100F600080917A00846080937A0080917A00826018
:100F700080937A0080917A00816080937A008091DA
:100F80007A00806880937A001092C100E091E301BA
:100F9000F091E40182E08083E091DF01F091E001D3
:100FA0001082E091E101F091E2018FEC80831092D8
:100FB000EB01E091E701F091E80186E08083E091A8
:100FC000E501F091E601808180618083E091E50197
:100FD000F091E601808188608083E091E501F091E5
:100FE000E601808180688083E091E501F091E6016F
:100FF00080818F7D808383E00E948C0064E084E1A7
:101000000E94070461E080E00E94A80469E371E0A7
:1010100080E792E00E943606CC24C394D12C12E0E3
:10102000332433949BE3E92E9FE1F92E8EE00E9456
:10103000F2029093D2018093D1018FE00E94F202DC
:101040009093D0018093CF0180E10E9449035C011D
:101050009093CE018093CD0181E10E944903EC0180
:101060009093CC018093CB0182E10E94490390933D
:10107000CA018093C901E091C701F091C801609154
:10108000C5017091C6014091C3015091C4019F01F7
:10109000260F371F240F351F121613062CF5950146
:1010A0002E1B3F0B37FF03C03195219531092333A8
:1010B0003105B4F49E01261B370B37FF03C0319571
:1010C00021953109233331055CF49C01241B350B38
:1010D00037FF03C03195219531092333310524F0C1
:1010E000D092C201C092C101B092C801A092C701C2
:1010F000D093C601C093C5019093C4018093C301EE
:1011000082E00E94F2029093C0018093BF010E948E
:101110005B034B015C0100E00E945B0368197909E5
:101120008A099B09683E73408105910508F46EC1E8
:1011300081E00E940104C7010197F1F760E081E0BE
:101140000E94A80469E571E080E792E00E943606FB
:101150008091D1019091D2016AE271E0892B11F462
:101160006EE271E080E792E00E94360664E971E089
:1011700080E792E00E9436068091CF019091D001E5
:101180006AE271E0892B11F46EE271E080E792E08F
:101190000E94360661E080E00E94A8046FE571E0DD
:1011A00080E792E00E9436068091CD019091CE01B9
:1011B0000E941B0562E671E080E792E00E9436061D
:1011C0008091CB019091CC010E941B0566E671E0F5
:1011D00080E792E00E9436068091C9019091CA0191
:1011E0000E941B058091BF019091C001892BB1F035
:1011F0006AE771E083ED91E00E94C0046AE671E065
:1012000083ED91E00E94C00463E081E00E94A804A5
:101210006DE671E080E792E00E9436060023A9F0B7
:101220008091C1019091C2012091D1013091D201F0
:10123000232B09F0E4C22091CF013091D001232B60
:1012400009F0DDC2892B09F0DCC260E083E00E9476
:101250001B03FCC3CA3209F405C1CC3209F0BBC27E
:101260008091DC028C278093DC02FCC09091EE021E
:10127000F0E0E252FD4F1082D091DD02DD2309F44F
:101280006AC12091DE02822F022E000C990B3FEBE7
:10129000320F363008F0EBC0C7978295807F90916F
:1012A000DF02292F092E000C330B4FEB490F46307C
:1012B00008F0E5C027533109820F9091DC028913B1
:1012C00040C1D091F002DD2309F4CFC08091F50236
:1012D0009091F60201969093F6028093F502809128
:1012E000D0029091D102A091D202B091D30280930A
:1012F000CC029093CD02A093CE02B093CF02809106
:10130000D8029091D902A091DA02B091DB028093C9
:10131000D4029093D502A093D602B093D7028091C5
:10132000ED02882309F4B4C0813009F060C08091D7
:101330008C0290918D02A0918E02B0918F028093C9
:10134000880290938902A0938A02B0938B028091C5
:10135000940290919502A0919602B0919702809389
:10136000900290939102A0939202B0939302809185
:101370009C0290919D02A0919E02B0919F02809349
:10138000980290939902A0939A02B0939B02809145
:10139000A4029091A502A091A602B091A702809309
:1013A000A0029093A102A093A202B093A302809105
:1013B000B4029091B502A091B602B091B7028093A9
:1013C000B0029093B102A093B202B093B3028091A5
:1013D000BC029091BD02A091BE02B091BF02809369
:1013E000B8029093B902A093BA02B093BB02809165
:1013F000EE028F5F8093EE021092EF0281E0CA321C
:1014000009F080E08093DD02D1110D2F83ED91E092
:101410000E941A02892B09F47FCE83ED91E00E948D
:10142000F801C82F8091F1029091F202A091F3028D
:10143000B091F4020196A11DB11D8093F102909329
:10144000F202A093F302B093F402C43209F4B6C1DD
:10145000E091EF02C5320CF0FDCECA3019F0CD306C
:1014600009F0B9C1EF3008F401CFD0E0C0CF215668
:10147000263018F48755910910CFC0970ECF91569A
:10148000963018F42755310917CF2053310914CF5E
:101490008091AC029091AD02A091AE02B091AF02EA
:1014A0008093A8029093A902A093AA02B093AB02E2
:1014B00080918C0290918D02A0918E02B0918F024A
:1014C0008093880290938902A0938A02B0938B0242
:1014D00080919C0290919D02A0919E02B0919F02EA
:1014E0008093980290939902A0939A02B0939B02E2
:1014F0008091A4029091A502A091A602B091A702AA
:101500008093A0029093A102A093A202B093A302A1
:101510008091CA029091CB029093C9028093C80235
:101520008091C4029091C502A091C602B091C702F9
:101530008093C0029093C102A093C202B093C302F1
:1015400056CF8091F7029091F80201969093F8029D
:101550008093F7028ACF91111CC04EED52E0ADE4AA
:10156000B1E0CA01FC012191CF01222309F484C218
:101570003D912317B9F3A3E5B1E0FA018191AF01E1
:10158000882309F47CC29D918917B9F31093ED0269
:101590002ECFE091ED02E23009F467CF8091DE02B8
:1015A000882309F462CF20E2E29FF0011124E92BA5
:1015B0003197E932F10508F01ACFEF51F54F0C944D
:1015C000D60F270B420B570B720B7D0BB70BBE0BC5
:1015D000C80BD30BF709F709F709F709F709F7095A
:1015E000F709F709F709F709F709F709F709F709FB
:1015F000F709F709F709F709F709F709F709F709EB
:10160000F709270B3C0B420B570B720B7D0B980B0A
:10161000A30B0A0BEEEDF2E020E030E0A9015190BF
:1016200080ED850D8A3008F099C0AAE0B0E00E94F4
:10163000DC0F252D550C330B440B550B260F371F94
:10164000481F591F2053310941095109E8CF0E9411
:10165000AB0060938C0270938D0280938E02909306
:101660008F020E945B036093D0027093D10280933B
:10167000D2029093D302BBCE91E0813409F47BC0B7
:1016800090E079C00E941D0160939C0270939D02BE
:1016900080939E0290939F020E945B036093D80206
:1016A0007093D9028093DA029093DB02A0CE833547
:1016B00009F0DBCE80919C0290919D02A0919E0248
:1016C000B0919F02B095A095909581959F4FAF4F97
:1016D000BF4F80939C0290939D02A0939E02B09373
:1016E0009F0285CE0E941D016093A4027093A50203
:1016F0008093A6029093A7027ACE873509F0B5CEE3
:101700008091A4029091A502A091A602B091A70297
:10171000B095A095909581959F4FAF4FBF4F809307
:10172000A4029093A502A093A602B093A7025FCE55
:101730000E94AB006093B4027093B5028093B6022E
:101740009093B70254CE0E94AB006093BC0270939A
:10175000BD028093BE029093BF0249CE20939402B3
:1017600030939502409396025093970240CE91E0B9
:1017700081330CF485CF9093F00239CE8EED92E058
:101780000E94420D99279093CB028093CA022FCEDC
:101790000E94AB006093C4027093C5028093C6029E
:1017A0009093C70224CE0E94AB006093AC0270936A
:1017B000AD028093AE029093AF0219CE1092EF0269
:1017C0001092EE021092DC021093ED021092DD02F4
:1017D0001092F0021BCEEE3040F481E08E0F809329
:1017E000EF02F0E0E252FD4FC0838091DD028111F3
:1017F0000DCE8091DC02C827C093DC0207CE892B76
:1018000051F062E080E00E94A8046FE771E080E799
:1018100092E00E94360661E083E00E941B03409044
:1018200098025090990260909A0270909B0280906A
:10183000A0029090A102A090A202B090A302809179
:10184000D4029091D502A091D602B091D7028F3FD9
:101850009F4FAF4FBF4F11F00E945B03FFEF4F163A
:10186000F9EC5F06FAE96F06FBE37F0609F4FBC0BB
:10187000C301B2010E947D0E20E034E244E759E446
:101880000E94DA0D2B013C01C501B4010E947D0EBE
:1018900020E034E244E759E40E94DA0D4B015C0198
:1018A00069E571E083ED91E00E9436068091D101F7
:1018B0009091D2016AE271E0892B11F46EE271E03D
:1018C00083ED91E00E94360663E971E083ED91E0DB
:1018D0000E9436068091CF019091D0016AE271E0BA
:1018E000892B11F46EE271E083ED91E00E943606DF
:1018F0006CE971E083ED91E00E9436068091C101B0
:101900009091C2016AE271E0892B11F46EE271E0FC
:1019100083ED91E00E94360668EA71E083ED91E084
:101920000E94360620E030E04AE754E4C301B201E9
:101930000E94D50DE0E030E090E0882321F0E42D16
:10194000352D962D872D26E04E2F532F692F782F7A
:1019500083ED91E00E94480568EA71E083ED91E033
:101960000E94360620E030E04AE754E4C501B401A5
:101970000E94D50DE0E030E090E0882321F0E82DD2
:10198000392D9A2D8B2D26E04E2F532F692F782F2E
:1019900083ED91E00E9448056AE671E083ED91E0F5
:1019A0000E94C00464E080E00E94A8046AEA71E03A
:1019B00080E792E00E94360620E030E0A901C301F2
:1019C000B2010E942D0FB301A20118160CF070583D
:1019D00021E080E792E00E94480520E030E0A90184
:1019E000C301B2010E942D0F61E371E087FF02C0C5
:1019F00063E371E080E792E00E9436066FEA71E0EF
:101A000080E792E00E94360620E030E0A901C5019F
:101A1000B4010E942D0FB501A40118160CF07058E6
:101A200021E080E792E00E94480520E030E0A90133
:101A3000C501B4010E942D0F65E371E087FF02C06C
:101A400067E371E080E792E00E94360680E090E074
:101A5000892B09F4EBCA0E942602882309F4E2CA02
:101A60000E940000DFCA412C512C8AE7682E84E4D2
:101A7000782E5301420114CF3092ED02B8CC10926F
:101A8000ED02B5CCFC0188279927E89421912032FA
:101A9000E9F3293010F02E30C8F32B3241F02D320B
:101AA00039F4689404C00E94600D820F911D219149
:101AB00020532A30C0F31EF4909581959F4F0895CE
:101AC0007AE0979F902D879F802D910D1124089586
:101AD0005058BB27AA270E94800D0C94F30E0E9439
:101AE000E50E38F00E94EC0E20F039F49F3F19F417
:101AF00026F40C94E20E0EF4E095E7FB0C94DC0E59
:101B0000E92F0E94040F58F3BA176207730784077E
:101B1000950720F079F4A6F50C94260F0EF4E095C5
:101B20000B2EBA2FA02D0B01B90190010C01CA0197
:101B3000A0011124FF27591B99F0593F50F4503E42
:101B400068F11A16F040A22F232F342F4427585F34
:101B5000F3CF469537952795A795F0405395C9F74C
:101B60007EF41F16BA0B620B730B840BBAF0915004
:101B7000A1F0FF0FBB1F661F771F881FC2F70EC0A3
:101B8000BA0F621F731F841F48F487957795679576
:101B9000B795F7959E3F08F0B0CF9395880F08F062
:101BA0009927EE0F9795879508950E94B80E08F42F
:101BB00081E008950E94EE0D0C94F30E0E94EC0E4D
:101BC00058F00E94E50E40F029F45F3F29F00C9494
:101BD000DC0E51110C94270F0C94E20E0E94040F9E
:101BE00068F39923B1F3552391F3951B550BBB274C
:101BF000AA2762177307840738F09F5F5F4F220F91
:101C0000331F441FAA1FA9F335D00E2E3AF0E0E887
:101C100032D091505040E695001CCAF72BD0FE2FD1
:101C200029D0660F771F881FBB1F26173707480765
:101C3000AB07B0E809F0BB0B802DBF01FF2793581D
:101C40005F4F3AF09E3F510578F00C94DC0E0C94F7
:101C5000270F5F3FE4F3983ED4F386957795679519
:101C6000B795F7959F5FC9F7880F911D9695879552
:101C700097F90895E1E0660F771F881FBB1F621771
:101C800073078407BA0720F0621B730B840BBA0B2F
:101C9000EE1F88F7E09508950E940C0F88F09F577B
:101CA00098F0B92F9927B751B0F0E1F0660F771F80
:101CB000881F991F1AF0BA95C9F714C0B13091F076
:101CC0000E94260FB1E008950C94260F672F782FFD
:101CD0008827B85F39F0B93FCCF38695779567953B
:101CE000B395D9F73EF490958095709561957F4FA7
:101CF0008F4F9F4F0895E89409C097FB3EF490954D
:101D00008095709561957F4F8F4F9F4F9923A9F0D4
:101D1000F92F96E9BB279395F69587957795679563
:101D2000B795F111F8CFFAF4BB0F11F460FF1BC0A7
:101D30006F5F7F4F8F4F9F4F16C0882311F096E93A
:101D400011C0772321F09EE8872F762F05C06623E8
:101D500071F096E8862F70E060E02AF09A95660FA1
:101D6000771F881FDAF7880F9695879597F908955A
:101D7000990F0008550FAA0BE0E8FEEF161617069C
:101D8000E807F907C0F012161306E407F50798F004
:101D9000621B730B840B950B39F40A2661F0232B1D
:101DA000242B252B21F408950A2609F4A140A69599
:101DB0008FEF811D811D089597F99F6780E870E07E
:101DC00060E008959FEF80EC089500240A941616B1
:101DD000170618060906089500240A941216130619
:101DE000140605060895092E0394000C11F48823A7
:101DF00052F0BB0F40F4BF2B11F460FF04C06F5FC3
:101E00007F4F8F4F9F4F089557FD9058440F551F98
:101E100059F05F3F71F04795880F97FB991F61F06C
:101E20009F3F79F087950895121613061406551FE3
:101E3000F2CF4695F1DF08C0161617061806991F4F
:101E4000F1CF86957105610508940895E894BB2744
:101E500066277727CB0197F908950E94B80E08F4FA
:101E60008FEF08950E94450F0C94F30E0E94E50E2B
:101E700038F00E94EC0E20F0952311F00C94DC0E4B
:101E80000C94E20E11240C94270F0E94040F70F39F
:101E9000959FC1F3950F50E0551F629FF001729F0F
:101EA000BB27F00DB11D639FAA27F00DB11DAA1F1E
:101EB000649F6627B00DA11D661F829F2227B00D6B
:101EC000A11D621F739FB00DA11D621F839FA00DF6
:101ED000611D221F749F3327A00D611D231F849F46
:101EE000600D211D822F762F6A2F11249F5750409D
:101EF0009AF0F1F088234AF0EE0FFF1FBB1F661F18
:101F0000771F881F91505040A9F79E3F510580F0E0
:101F10000C94DC0E0C94270F5F3FE4F3983ED4F34F
:101F2000869577956795B795F795E7959F5FC1F784
:101F3000FE2B880F911D9695879597F908950E941D
:101F4000B80E880B990B0895DB018F939F930E9425
:101F5000DC0FBF91AF91A29F800D911DA39F900DAB
:101F6000B29F900D11240895A1E21A2EAA1BBB1B4B
:101F7000FD010DC0AA1FBB1FEE1FFF1FA217B30755
:101F8000E407F50720F0A21BB30BE40BF50B661F6B
:101F9000771F881F991F1A9469F76095709580952F
:101FA00090959B01AC01BD01CF010895EE0FFF1F7D
:101FB0000590F491E02D09940E94EF0FA59F900DDC
:101FC000B49F900DA49F800D911D11240895B7FF1B
:101FD0000C94DC0F0E94DC0F821B930B0895A29FD0
:101FE000B001B39FC001A39F700D811D1124911DED
:101FF000B29F700D811D1124911D0895F894FFCF9B
:10200000000000005C02BC01E901A9021A02F8010B
:102010000C0200000000BA04BC01680367036E6193
:102020006E00696E66006F766600596573004E6FCC
:10203000004E00530045005700496E697469616C99
:10204000697A696E672053797374656D00475052E1
:102050004D4300475047474100466972653A005872
:102060003A0020593A00205A3A000D0A004C6F639A
:102070006174696F6E207669612052464944002080
:10208000204163636964656E74204465746563749C
:102090006564002C20536D6F6B653A002C20416302
:1020A000636964656E743A003B004C61743A0020C9
:0620B0004C6F6E3A0000C7
:107E0000112484B714BE81FFF0D085E080938100F7
:107E100082E08093C00088E18093C10086E0809377
:107E2000C20080E18093C4008EE0C9D0259A86E02C
:107E300020E33CEF91E0309385002093840096BBD3
:107E4000B09BFECF1D9AA8958150A9F7CC24DD24C4
:107E500088248394B5E0AB2EA1E19A2EF3E0BF2EE7
:107E6000A2D0813461F49FD0082FAFD0023811F036
:107E7000013811F484E001C083E08DD089C08234E0
:107E800011F484E103C0853419F485E0A6D080C0E4
:107E9000853579F488D0E82EFF2485D0082F10E0AE
:107EA000102F00270E291F29000F111F8ED06801E7
:107EB0006FC0863521F484E090D080E0DECF843638
:107EC00009F040C070D06FD0082F6DD080E0C81688
:107ED00080E7D80618F4F601B7BEE895C0E0D1E017
:107EE00062D089930C17E1F7F0E0CF16F0E7DF06D8
:107EF00018F0F601B7BEE89568D007B600FCFDCFD4
:107F0000A601A0E0B1E02C9130E011968C91119780
:107F100090E0982F8827822B932B1296FA010C0160
:107F200087BEE89511244E5F5F4FF1E0A038BF0790
:107F300051F7F601A7BEE89507B600FCFDCF97BE46
:107F4000E89526C08437B1F42ED02DD0F82E2BD052
:107F50003CD0F601EF2C8F010F5F1F4F84911BD097
:107F6000EA94F801C1F70894C11CD11CFA94CF0C13
:107F7000D11C0EC0853739F428D08EE10CD085E9AC
:107F80000AD08FE07ACF813511F488E018D01DD067
:107F900080E101D065CF982F8091C00085FFFCCF94
:107FA0009093C60008958091C00087FFFCCF809118
:107FB000C00084FD01C0A8958091C6000895E0E648
:107FC000F0E098E1908380830895EDDF803219F02E
:107FD00088E0F5DFFFCF84E1DECF1F93182FE3DFCA
:107FE0001150E9F7F2DF1F91089580E0E8DFEE27F6
:047FF000FF270994CA
:027FFE00040479
:00000001FF
